{
  "_format": "hh-sol-artifact-1",
  "contractName": "GovernorAlpha",
  "sourceName": "contracts/GovernorAlpha.sol",
  "abi": [
    {
      "inputs": [
        {
          "internalType": "address",
          "name": "voto_",
          "type": "address"
        }
      ],
      "payable": false,
      "stateMutability": "nonpayable",
      "type": "constructor"
    },
    {
      "anonymous": false,
      "inputs": [
        {
          "indexed": false,
          "internalType": "uint256",
          "name": "id",
          "type": "uint256"
        }
      ],
      "name": "ProposalCreated",
      "type": "event"
    },
    {
      "anonymous": false,
      "inputs": [
        {
          "indexed": false,
          "internalType": "uint256",
          "name": "timestamp",
          "type": "uint256"
        }
      ],
      "name": "ValidityStatus",
      "type": "event"
    },
    {
      "anonymous": false,
      "inputs": [
        {
          "indexed": false,
          "internalType": "address",
          "name": "voter",
          "type": "address"
        },
        {
          "indexed": false,
          "internalType": "uint256",
          "name": "proposalId",
          "type": "uint256"
        },
        {
          "indexed": false,
          "internalType": "bool",
          "name": "support",
          "type": "bool"
        },
        {
          "indexed": false,
          "internalType": "uint256",
          "name": "votes",
          "type": "uint256"
        }
      ],
      "name": "VoteCast",
      "type": "event"
    },
    {
      "constant": false,
      "inputs": [
        {
          "internalType": "uint256",
          "name": "proposalId",
          "type": "uint256"
        },
        {
          "internalType": "bool",
          "name": "support",
          "type": "bool"
        }
      ],
      "name": "castVote",
      "outputs": [],
      "payable": false,
      "stateMutability": "nonpayable",
      "type": "function"
    },
    {
      "constant": true,
      "inputs": [
        {
          "internalType": "address",
          "name": "_user",
          "type": "address"
        },
        {
          "internalType": "uint256",
          "name": "proposalId",
          "type": "uint256"
        }
      ],
      "name": "checkHasVoted",
      "outputs": [
        {
          "internalType": "bool",
          "name": "",
          "type": "bool"
        }
      ],
      "payable": false,
      "stateMutability": "view",
      "type": "function"
    },
    {
      "constant": true,
      "inputs": [],
      "name": "getValidityStatus",
      "outputs": [
        {
          "internalType": "uint256",
          "name": "",
          "type": "uint256"
        },
        {
          "internalType": "uint256",
          "name": "",
          "type": "uint256"
        }
      ],
      "payable": false,
      "stateMutability": "view",
      "type": "function"
    },
    {
      "constant": true,
      "inputs": [
        {
          "internalType": "uint256",
          "name": "",
          "type": "uint256"
        }
      ],
      "name": "isProposalActive",
      "outputs": [
        {
          "internalType": "bool",
          "name": "",
          "type": "bool"
        }
      ],
      "payable": false,
      "stateMutability": "view",
      "type": "function"
    },
    {
      "constant": true,
      "inputs": [
        {
          "internalType": "address",
          "name": "",
          "type": "address"
        }
      ],
      "name": "latestProposalIds",
      "outputs": [
        {
          "internalType": "uint256",
          "name": "",
          "type": "uint256"
        }
      ],
      "payable": false,
      "stateMutability": "view",
      "type": "function"
    },
    {
      "constant": true,
      "inputs": [],
      "name": "name",
      "outputs": [
        {
          "internalType": "string",
          "name": "",
          "type": "string"
        }
      ],
      "payable": false,
      "stateMutability": "view",
      "type": "function"
    },
    {
      "constant": true,
      "inputs": [],
      "name": "proposalCount",
      "outputs": [
        {
          "internalType": "uint256",
          "name": "",
          "type": "uint256"
        }
      ],
      "payable": false,
      "stateMutability": "view",
      "type": "function"
    },
    {
      "constant": true,
      "inputs": [
        {
          "internalType": "uint256",
          "name": "",
          "type": "uint256"
        }
      ],
      "name": "proposals",
      "outputs": [
        {
          "internalType": "uint256",
          "name": "id",
          "type": "uint256"
        },
        {
          "internalType": "address",
          "name": "proposer",
          "type": "address"
        },
        {
          "internalType": "uint256",
          "name": "eta",
          "type": "uint256"
        },
        {
          "internalType": "uint256",
          "name": "startBlock",
          "type": "uint256"
        },
        {
          "internalType": "uint256",
          "name": "endBlock",
          "type": "uint256"
        },
        {
          "internalType": "uint256",
          "name": "forVotes",
          "type": "uint256"
        },
        {
          "internalType": "uint256",
          "name": "againstVotes",
          "type": "uint256"
        },
        {
          "internalType": "bool",
          "name": "canceled",
          "type": "bool"
        },
        {
          "internalType": "bool",
          "name": "executed",
          "type": "bool"
        },
        {
          "components": [
            {
              "internalType": "string",
              "name": "title",
              "type": "string"
            },
            {
              "internalType": "string",
              "name": "typeOfAction",
              "type": "string"
            },
            {
              "internalType": "string",
              "name": "locationURL",
              "type": "string"
            },
            {
              "internalType": "string",
              "name": "web2URL",
              "type": "string"
            },
            {
              "internalType": "string",
              "name": "description",
              "type": "string"
            },
            {
              "internalType": "string",
              "name": "fileURL",
              "type": "string"
            },
            {
              "internalType": "uint256",
              "name": "expiration",
              "type": "uint256"
            },
            {
              "internalType": "uint256",
              "name": "requiredVotoToVote",
              "type": "uint256"
            },
            {
              "internalType": "uint256",
              "name": "proposalTime",
              "type": "uint256"
            },
            {
              "internalType": "address",
              "name": "proposer",
              "type": "address"
            }
          ],
          "internalType": "struct GovernorAlpha.UserInputFields",
          "name": "userInputFields",
          "type": "tuple"
        }
      ],
      "payable": false,
      "stateMutability": "view",
      "type": "function"
    },
    {
      "constant": false,
      "inputs": [
        {
          "components": [
            {
              "internalType": "string",
              "name": "title",
              "type": "string"
            },
            {
              "internalType": "string",
              "name": "typeOfAction",
              "type": "string"
            },
            {
              "internalType": "string",
              "name": "locationURL",
              "type": "string"
            },
            {
              "internalType": "string",
              "name": "web2URL",
              "type": "string"
            },
            {
              "internalType": "string",
              "name": "description",
              "type": "string"
            },
            {
              "internalType": "string",
              "name": "fileURL",
              "type": "string"
            },
            {
              "internalType": "uint256",
              "name": "expiration",
              "type": "uint256"
            },
            {
              "internalType": "uint256",
              "name": "requiredVotoToVote",
              "type": "uint256"
            },
            {
              "internalType": "uint256",
              "name": "proposalTime",
              "type": "uint256"
            },
            {
              "internalType": "address",
              "name": "proposer",
              "type": "address"
            }
          ],
          "internalType": "struct GovernorAlpha.UserInputFields",
          "name": "_userInputFields",
          "type": "tuple"
        }
      ],
      "name": "propose",
      "outputs": [
        {
          "internalType": "uint256",
          "name": "",
          "type": "uint256"
        }
      ],
      "payable": false,
      "stateMutability": "nonpayable",
      "type": "function"
    },
    {
      "constant": true,
      "inputs": [
        {
          "internalType": "address",
          "name": "",
          "type": "address"
        }
      ],
      "name": "userProposals",
      "outputs": [
        {
          "internalType": "uint256",
          "name": "count",
          "type": "uint256"
        }
      ],
      "payable": false,
      "stateMutability": "view",
      "type": "function"
    },
    {
      "constant": false,
      "inputs": [
        {
          "internalType": "uint256",
          "name": "_rewardedTokens",
          "type": "uint256"
        }
      ],
      "name": "validate",
      "outputs": [
        {
          "internalType": "uint256",
          "name": "",
          "type": "uint256"
        }
      ],
      "payable": false,
      "stateMutability": "nonpayable",
      "type": "function"
    },
    {
      "constant": true,
      "inputs": [
        {
          "internalType": "address",
          "name": "",
          "type": "address"
        }
      ],
      "name": "validations",
      "outputs": [
        {
          "internalType": "uint256",
          "name": "expirationTime",
          "type": "uint256"
        }
      ],
      "payable": false,
      "stateMutability": "view",
      "type": "function"
    },
    {
      "constant": true,
      "inputs": [],
      "name": "votingDelay",
      "outputs": [
        {
          "internalType": "uint256",
          "name": "",
          "type": "uint256"
        }
      ],
      "payable": false,
      "stateMutability": "pure",
      "type": "function"
    },
    {
      "constant": true,
      "inputs": [],
      "name": "votingPeriod",
      "outputs": [
        {
          "internalType": "uint256",
          "name": "",
          "type": "uint256"
        }
      ],
      "payable": false,
      "stateMutability": "pure",
      "type": "function"
    },
    {
      "constant": true,
      "inputs": [],
      "name": "voto",
      "outputs": [
        {
          "internalType": "contract VotoInterface",
          "name": "",
          "type": "address"
        }
      ],
      "payable": false,
      "stateMutability": "view",
      "type": "function"
    }
  ],
  "bytecode": "0x60806040523480156200001157600080fd5b50604051620023e6380380620023e6833981810160405262000037919081019062000095565b806000806101000a81548173ffffffffffffffffffffffffffffffffffffffff021916908373ffffffffffffffffffffffffffffffffffffffff160217905550506200010f565b6000815190506200008f81620000f5565b92915050565b600060208284031215620000a857600080fd5b6000620000b8848285016200007e565b91505092915050565b6000620000ce82620000d5565b9050919050565b600073ffffffffffffffffffffffffffffffffffffffff82169050919050565b6200010081620000c1565b81146200010c57600080fd5b50565b6122c7806200011f6000396000f3fe608060405234801561001057600080fd5b50600436106100f55760003560e01c80633932abb111610097578063c787643411610066578063c7876434146102b8578063ce4d01a3146102d6578063da35c66414610306578063f715534514610324576100f5565b80633932abb11461020a5780635d129b85146102285780637b47502114610258578063b55643e114610288576100f5565b806315373e3d116100d357806315373e3d1461016f578063164b3d2f1461018b57806317977c61146101bb57806331bfb4ca146101eb576100f5565b8063013cf08b146100fa57806302a251a31461013357806306fdde0314610151575b600080fd5b610114600480360361010f91908101906119a5565b610354565b60405161012a9a99989796959493929190611fbc565b60405180910390f35b61013b61082d565b6040516101489190611fa1565b60405180910390f35b610159610838565b6040516101669190611edf565b60405180910390f35b610189600480360361018491908101906119f7565b610871565b005b6101a560048036036101a091908101906119a5565b610880565b6040516101b29190611ea9565b60405180910390f35b6101d560048036036101d091908101906118d6565b6108a0565b6040516101e29190611fa1565b60405180910390f35b6101f36108b8565b60405161020192919061205f565b60405180910390f35b610212610907565b60405161021f9190611fa1565b60405180910390f35b610242600480360361023d91908101906118ff565b610910565b60405161024f9190611ea9565b60405180910390f35b610272600480360361026d9190810190611964565b610989565b60405161027f9190611fa1565b60405180910390f35b6102a2600480360361029d91908101906118d6565b610ee7565b6040516102af9190611fa1565b60405180910390f35b6102c0610f05565b6040516102cd9190611ec4565b60405180910390f35b6102f060048036036102eb91908101906119a5565b610f2a565b6040516102fd9190611fa1565b60405180910390f35b61030e611190565b60405161031b9190611fa1565b60405180910390f35b61033e600480360361033991908101906118d6565b611196565b60405161034b9190611fa1565b60405180910390f35b60026020528060005260406000206000915090508060000154908060010160009054906101000a900473ffffffffffffffffffffffffffffffffffffffff16908060020154908060030154908060040154908060050154908060060154908060070160009054906101000a900460ff16908060070160019054906101000a900460ff16908060080160405180610140016040529081600082018054600181600116156101000203166002900480601f0160208091040260200160405190810160405280929190818152602001828054600181600116156101000203166002900480156104815780601f1061045657610100808354040283529160200191610481565b820191906000526020600020905b81548152906001019060200180831161046457829003601f168201915b50505050508152602001600182018054600181600116156101000203166002900480601f0160208091040260200160405190810160405280929190818152602001828054600181600116156101000203166002900480156105235780601f106104f857610100808354040283529160200191610523565b820191906000526020600020905b81548152906001019060200180831161050657829003601f168201915b50505050508152602001600282018054600181600116156101000203166002900480601f0160208091040260200160405190810160405280929190818152602001828054600181600116156101000203166002900480156105c55780601f1061059a576101008083540402835291602001916105c5565b820191906000526020600020905b8154815290600101906020018083116105a857829003601f168201915b50505050508152602001600382018054600181600116156101000203166002900480601f0160208091040260200160405190810160405280929190818152602001828054600181600116156101000203166002900480156106675780601f1061063c57610100808354040283529160200191610667565b820191906000526020600020905b81548152906001019060200180831161064a57829003601f168201915b50505050508152602001600482018054600181600116156101000203166002900480601f0160208091040260200160405190810160405280929190818152602001828054600181600116156101000203166002900480156107095780601f106106de57610100808354040283529160200191610709565b820191906000526020600020905b8154815290600101906020018083116106ec57829003601f168201915b50505050508152602001600582018054600181600116156101000203166002900480601f0160208091040260200160405190810160405280929190818152602001828054600181600116156101000203166002900480156107ab5780601f10610780576101008083540402835291602001916107ab565b820191906000526020600020905b81548152906001019060200180831161078e57829003601f168201915b505050505081526020016006820154815260200160078201548152602001600882015481526020016009820160009054906101000a900473ffffffffffffffffffffffffffffffffffffffff1673ffffffffffffffffffffffffffffffffffffffff1673ffffffffffffffffffffffffffffffffffffffff168152505090508a565b60006213c680905090565b6040518060400160405280601f81526020017f476f6265726e61646f7220416c66612064652043697564616465732044414f0081525081565b61087c3383836111b4565b5050565b60046020528060005260406000206000915054906101000a900460ff1681565b60036020528060005260406000206000915090505481565b600080600560003373ffffffffffffffffffffffffffffffffffffffff1673ffffffffffffffffffffffffffffffffffffffff1681526020019081526020016000206000015442915091509091565b60006001905090565b60008060026000848152602001908152602001600020905060008160120160008673ffffffffffffffffffffffffffffffffffffffff1673ffffffffffffffffffffffffffffffffffffffff16815260200190815260200160002090508060000160009054906101000a900460ff169250505092915050565b60008042600560003373ffffffffffffffffffffffffffffffffffffffff1673ffffffffffffffffffffffffffffffffffffffff1681526020019081526020016000206000015411156109df57600190506109e4565b600090505b80610a24576040517f08c379a0000000000000000000000000000000000000000000000000000000008152600401610a1b90611f01565b60405180910390fd5b6014600660003373ffffffffffffffffffffffffffffffffffffffff1673ffffffffffffffffffffffffffffffffffffffff168152602001908152602001600020600001541015610bbf5760008060009054906101000a900473ffffffffffffffffffffffffffffffffffffffff1673ffffffffffffffffffffffffffffffffffffffff166323b872dd3033678ac7230489e800006040518463ffffffff1660e01b8152600401610ad793929190611df6565b602060405180830381600087803b158015610af157600080fd5b505af1158015610b05573d6000803e3d6000fd5b505050506040513d601f19601f82011682018060405250610b29919081019061193b565b905080610b6b576040517f08c379a0000000000000000000000000000000000000000000000000000000008152600401610b6290611f61565b60405180910390fd5b600660003373ffffffffffffffffffffffffffffffffffffffff1673ffffffffffffffffffffffffffffffffffffffff16815260200190815260200160002060000160008154809291906001019190505550505b6000610bd242610bcd610907565b6114c1565b90506000610be782610be261082d565b6114c1565b9050600160008154809291906001019190505550610c03611516565b60405180610140016040528060015481526020013373ffffffffffffffffffffffffffffffffffffffff1681526020016000815260200184815260200183815260200160008152602001600081526020016000151581526020016000151581526020018781525090508060026000836000015181526020019081526020016000206000820151816000015560208201518160010160006101000a81548173ffffffffffffffffffffffffffffffffffffffff021916908373ffffffffffffffffffffffffffffffffffffffff16021790555060408201518160020155606082015181600301556080820151816004015560a0820151816005015560c0820151816006015560e08201518160070160006101000a81548160ff0219169083151502179055506101008201518160070160016101000a81548160ff021916908315150217905550610120820151816008016000820151816000019080519060200190610d6e929190611589565b506020820151816001019080519060200190610d8b929190611589565b506040820151816002019080519060200190610da8929190611589565b506060820151816003019080519060200190610dc5929190611589565b506080820151816004019080519060200190610de2929190611589565b5060a0820151816005019080519060200190610dff929190611589565b5060c0820151816006015560e0820151816007015561010082015181600801556101208201518160090160006101000a81548173ffffffffffffffffffffffffffffffffffffffff021916908373ffffffffffffffffffffffffffffffffffffffff16021790555050509050506001600460008360000151815260200190815260200160002060006101000a81548160ff0219169083151502179055507fc2c021f5d73c63c481d336fbbafec58f694fc45095f00b02d2deb8cca59afe078160000151604051610ecf9190611fa1565b60405180910390a18060000151945050505050919050565b60066020528060005260406000206000915090508060000154905081565b6000809054906101000a900473ffffffffffffffffffffffffffffffffffffffff1681565b600080600560003373ffffffffffffffffffffffffffffffffffffffff1673ffffffffffffffffffffffffffffffffffffffff1681526020019081526020016000206000015414156110d457604051806020016040528062278d004201815250600560003373ffffffffffffffffffffffffffffffffffffffff1673ffffffffffffffffffffffffffffffffffffffff1681526020019081526020016000206000820151816000015590505060008060009054906101000a900473ffffffffffffffffffffffffffffffffffffffff1673ffffffffffffffffffffffffffffffffffffffff166323b872dd3033866040518463ffffffff1660e01b815260040161103693929190611e2d565b602060405180830381600087803b15801561105057600080fd5b505af1158015611064573d6000803e3d6000fd5b505050506040513d601f19601f82011682018060405250611088919081019061193b565b9050806110ca576040517f08c379a00000000000000000000000000000000000000000000000000000000081526004016110c190611f61565b60405180910390fd5b600091505061118b565b42600560003373ffffffffffffffffffffffffffffffffffffffff1673ffffffffffffffffffffffffffffffffffffffff1681526020019081526020016000206000015410611126576001905061118b565b604051806020016040528062278d004201815250600560003373ffffffffffffffffffffffffffffffffffffffff1673ffffffffffffffffffffffffffffffffffffffff16815260200190815260200160002060008201518160000155905050600290505b919050565b60015481565b60056020528060005260406000206000915090508060000154905081565b600060026000848152602001908152602001600020905060008160120160008673ffffffffffffffffffffffffffffffffffffffff1673ffffffffffffffffffffffffffffffffffffffff168152602001908152602001600020905081600401544211156112495760006004600086815260200190815260200160002060006101000a81548160ff0219169083151502179055505b600115156004600086815260200190815260200160002060009054906101000a900460ff161515146112b0576040517f08c379a00000000000000000000000000000000000000000000000000000000081526004016112a790611f81565b60405180910390fd5b60008060009054906101000a900473ffffffffffffffffffffffffffffffffffffffff1673ffffffffffffffffffffffffffffffffffffffff166370a08231336040518263ffffffff1660e01b815260040161130c9190611ddb565b60206040518083038186803b15801561132457600080fd5b505afa158015611338573d6000803e3d6000fd5b505050506040513d601f19601f8201168201806040525061135c91908101906119ce565b90506000819050600015158360000160009054906101000a900460ff161515146113bb576040517f08c379a00000000000000000000000000000000000000000000000000000000081526004016113b290611f21565b60405180910390fd5b84156113ea576113dd8460050154826bffffffffffffffffffffffff166114c1565b846005018190555061140f565b6114068460060154826bffffffffffffffffffffffff166114c1565b84600601819055505b60018360000160006101000a81548160ff021916908315150217905550848360000160016101000a81548160ff021916908315150217905550808360000160026101000a8154816bffffffffffffffffffffffff02191690836bffffffffffffffffffffffff1602179055507f877856338e13f63d0c36822ff0ef736b80934cd90574a3a5bc9262c39d217c46878787846040516114b09493929190611e64565b60405180910390a150505050505050565b60008082840190508381101561150c576040517f08c379a000000000000000000000000000000000000000000000000000000000815260040161150390611f41565b60405180910390fd5b8091505092915050565b60405180610140016040528060008152602001600073ffffffffffffffffffffffffffffffffffffffff1681526020016000815260200160008152602001600081526020016000815260200160008152602001600015158152602001600015158152602001611583611609565b81525090565b828054600181600116156101000203166002900490600052602060002090601f016020900481019282601f106115ca57805160ff19168380011785556115f8565b828001600101855582156115f8579182015b828111156115f75782518255916020019190600101906115dc565b5b5090506116059190611672565b5090565b604051806101400160405280606081526020016060815260200160608152602001606081526020016060815260200160608152602001600081526020016000815260200160008152602001600073ffffffffffffffffffffffffffffffffffffffff1681525090565b61169491905b80821115611690576000816000905550600101611678565b5090565b90565b6000813590506116a68161223f565b92915050565b6000813590506116bb81612256565b92915050565b6000815190506116d081612256565b92915050565b600082601f8301126116e757600080fd5b81356116fa6116f5826120b5565b612088565b9150808252602083016020830185838301111561171657600080fd5b6117218382846121ec565b50505092915050565b6000610140828403121561173d57600080fd5b611748610140612088565b9050600082013567ffffffffffffffff81111561176457600080fd5b611770848285016116d6565b600083015250602082013567ffffffffffffffff81111561179057600080fd5b61179c848285016116d6565b602083015250604082013567ffffffffffffffff8111156117bc57600080fd5b6117c8848285016116d6565b604083015250606082013567ffffffffffffffff8111156117e857600080fd5b6117f4848285016116d6565b606083015250608082013567ffffffffffffffff81111561181457600080fd5b611820848285016116d6565b60808301525060a082013567ffffffffffffffff81111561184057600080fd5b61184c848285016116d6565b60a08301525060c0611860848285016118ac565b60c08301525060e0611874848285016118ac565b60e083015250610100611889848285016118ac565b6101008301525061012061189f84828501611697565b6101208301525092915050565b6000813590506118bb8161226d565b92915050565b6000815190506118d08161226d565b92915050565b6000602082840312156118e857600080fd5b60006118f684828501611697565b91505092915050565b6000806040838503121561191257600080fd5b600061192085828601611697565b9250506020611931858286016118ac565b9150509250929050565b60006020828403121561194d57600080fd5b600061195b848285016116c1565b91505092915050565b60006020828403121561197657600080fd5b600082013567ffffffffffffffff81111561199057600080fd5b61199c8482850161172a565b91505092915050565b6000602082840312156119b757600080fd5b60006119c5848285016118ac565b91505092915050565b6000602082840312156119e057600080fd5b60006119ee848285016118c1565b91505092915050565b60008060408385031215611a0a57600080fd5b6000611a18858286016118ac565b9250506020611a29858286016116ac565b9150509250929050565b611a3c8161216e565b82525050565b611a4b8161210e565b82525050565b611a5a8161210e565b82525050565b611a6981612120565b82525050565b611a7881612180565b82525050565b611a87816121a4565b82525050565b6000611a98826120e1565b611aa281856120ec565b9350611ab28185602086016121fb565b611abb8161222e565b840191505092915050565b6000611ad1826120e1565b611adb81856120fd565b9350611aeb8185602086016121fb565b611af48161222e565b840191505092915050565b6000611b0c601f836120fd565b91507f75736572206973206e6f742063757272656e746c792076616c696461746564006000830152602082019050919050565b6000611b4c602d836120fd565b91507f476f7665726e6f72416c7068613a3a5f63617374566f74653a20766f7465722060008301527f616c726561647920766f746564000000000000000000000000000000000000006020830152604082019050919050565b6000611bb26011836120fd565b91507f6164646974696f6e206f766572666c6f770000000000000000000000000000006000830152602082019050919050565b6000611bf26024836120fd565b91507f546f6b656e73206e6f74207472616e7366657272656420746f206d73672e736560008301527f6e646572000000000000000000000000000000000000000000000000000000006020830152604082019050919050565b6000611c58602a836120fd565b91507f476f7665726e6f72416c7068613a3a5f63617374566f74653a20766f74696e6760008301527f20697320636c6f736564000000000000000000000000000000000000000000006020830152604082019050919050565b6000610140830160008301518482036000860152611ccf8282611a8d565b91505060208301518482036020860152611ce98282611a8d565b91505060408301518482036040860152611d038282611a8d565b91505060608301518482036060860152611d1d8282611a8d565b91505060808301518482036080860152611d378282611a8d565b91505060a083015184820360a0860152611d518282611a8d565b91505060c0830151611d6660c0860182611dae565b5060e0830151611d7960e0860182611dae565b50610100830151611d8e610100860182611dae565b50610120830151611da3610120860182611a42565b508091505092915050565b611db78161214c565b82525050565b611dc68161214c565b82525050565b611dd5816121da565b82525050565b6000602082019050611df06000830184611a33565b92915050565b6000606082019050611e0b6000830186611a51565b611e186020830185611a33565b611e256040830184611a7e565b949350505050565b6000606082019050611e426000830186611a51565b611e4f6020830185611a33565b611e5c6040830184611dbd565b949350505050565b6000608082019050611e796000830187611a51565b611e866020830186611dbd565b611e936040830185611a60565b611ea06060830184611dcc565b95945050505050565b6000602082019050611ebe6000830184611a60565b92915050565b6000602082019050611ed96000830184611a6f565b92915050565b60006020820190508181036000830152611ef98184611ac6565b905092915050565b60006020820190508181036000830152611f1a81611aff565b9050919050565b60006020820190508181036000830152611f3a81611b3f565b9050919050565b60006020820190508181036000830152611f5a81611ba5565b9050919050565b60006020820190508181036000830152611f7a81611be5565b9050919050565b60006020820190508181036000830152611f9a81611c4b565b9050919050565b6000602082019050611fb66000830184611dbd565b92915050565b600061014082019050611fd2600083018d611dbd565b611fdf602083018c611a51565b611fec604083018b611dbd565b611ff9606083018a611dbd565b6120066080830189611dbd565b61201360a0830188611dbd565b61202060c0830187611dbd565b61202d60e0830186611a60565b61203b610100830185611a60565b81810361012083015261204e8184611cb1565b90509b9a5050505050505050505050565b60006040820190506120746000830185611dbd565b6120816020830184611dbd565b9392505050565b6000604051905081810181811067ffffffffffffffff821117156120ab57600080fd5b8060405250919050565b600067ffffffffffffffff8211156120cc57600080fd5b601f19601f8301169050602081019050919050565b600081519050919050565b600082825260208201905092915050565b600082825260208201905092915050565b60006121198261212c565b9050919050565b60008115159050919050565b600073ffffffffffffffffffffffffffffffffffffffff82169050919050565b6000819050919050565b60006bffffffffffffffffffffffff82169050919050565b6000612179826121b6565b9050919050565b600061218b82612192565b9050919050565b600061219d8261212c565b9050919050565b60006121af8261214c565b9050919050565b60006121c1826121c8565b9050919050565b60006121d38261212c565b9050919050565b60006121e582612156565b9050919050565b82818337600083830152505050565b60005b838110156122195780820151818401526020810190506121fe565b83811115612228576000848401525b50505050565b6000601f19601f8301169050919050565b6122488161210e565b811461225357600080fd5b50565b61225f81612120565b811461226a57600080fd5b50565b6122768161214c565b811461228157600080fd5b5056fea365627a7a72315820bc937b5ce88b2b9c85cb72edd9382f90a6b1c893cc4dfa41dd8c7ddec40291c66c6578706572696d656e74616cf564736f6c63430005100040",
  "linkReferences": {},
  "deployedLinkReferences": {}
}